:020000040800F2
:1000000000000120352B0008D9110008DB11000881
:10001000DD110008DF110008E111000800000000F8
:10002000000000000000000000000000E3110008D4
:10003000E511000800000000E7110008E9110008C0
:10004000852B0008852B0008852B0008852B0008D0
:10005000852B0008852B0008852B0008852B0008C0
:10006000852B0008852B0008852B0008852B0008B0
:10007000852B0008852B0008852B0008852B0008A0
:10008000852B0008852B0008852B0008852B000890
:10009000852B0008852B0008852B0008852B000880
:1000A000852B0008852B0008852B0008852B000870
:1000B000852B0008852B0008852B0008852B000860
:1000C000852B0008852B0008852B0008852B000850
:1000D000852B0008852B0008852B0008852B000840
:1000E000852B0008852B0008852B0008852B000830
:1000F000852B0008852B0008852B0008852B000820
:10010000852B00080000000000000000852B00087F
:10011000852B0008852B0008852B0008852B0008FF
:10012000852B0008852B0008852B0008852B0008EF
:10013000852B0008852B000800000000000000004F
:10014000852B0008852B0008852B00080000000087
:10015000000000000000000000000000000000009F
:10016000852B0008852B0008852B0008852B0008AF
:10017000852B0008852B0008852B0008852B00089F
:10018000852B0008852B00080000000000000000FF
:04019000852B0008B3
:1001A00010B5054C237833B9044B13B10448AFF3B1
:1001B00000800123237010BD6800002000000000B3
:1001C000743C000808B5034B1BB103490348AFF367
:1001D000008008BD000000006C000020743C000896
:1001E00001F0FF01102A2BDB10F0070F08D010F8E8
:1001F000013B013A8B422DD010F0070F42B3F6D1EC
:10020000F0B441EA012141EA014122F007047FF004
:1002100000070023F0E80256083C85EA010586EA5B
:10022000010685FA47F5A3FA87F586FA47F6A5FA97
:1002300087F68EB9EED1F0BC01F0FF0102F00702A3
:1002400032B110F8013B013A83EA010313B1F8D14E
:100250000020704701387047002D06BF354603382F
:10026000073815F0010F07D1013015F4807F02BF68
:10027000013015F4C03F0130F0BC0138704700BFB9
:1002800081F0004102E000BF83F0004330B54FEA47
:1002900041044FEA430594EA050F08BF90EA020FB4
:1002A0001FBF54EA000C55EA020C7FEA645C7FEA47
:1002B000655C00F0E2804FEA5454D4EB5555B8BF6A
:1002C0006D420CDD2C4480EA020281EA030382EADB
:1002D000000083EA010180EA020281EA0303362D6D
:1002E00088BF30BD11F0004F4FEA01314FF4801C40
:1002F0004CEA113102D0404261EB410113F0004F52
:100300004FEA03334CEA133302D0524263EB430308
:1003100094EA050F00F0A780A4F10104D5F1200EA6
:100320000DDB02FA0EFC22FA05F2801841F1000101
:1003300003FA0EF2801843FA05F359410EE0A5F1D5
:1003400020050EF1200E012A03FA0EFC28BF4CF006
:10035000020C43FA05F3C01851EBE37101F00045BC
:1003600007D54FF0000EDCF1000C7EEB00006EEBC9
:100370000101B1F5801F1BD3B1F5001F0CD3490853
:100380005FEA30004FEA3C0C04F101044FEA4452AA
:1003900012F5800F80F09A80BCF1004F08BF5FEA31
:1003A000500C50F1000041EB045141EA050130BD11
:1003B0005FEA4C0C404141EB010111F4801FA4F1B4
:1003C0000104E9D191F0000F04BF01460020B1FA09
:1003D00081F308BF2033A3F10B03B3F120020CDA41
:1003E0000C3208DD02F1140CC2F10C0201FA0CF01F
:1003F00021FA02F10CE002F11402D8BFC2F1200C84
:1004000001FA02F120FA0CFCDCBF41EA0C01904039
:10041000E41AA2BF01EB0451294330BD6FEA040482
:100420001F3C1CDA0C340EDC04F11404C4F120026D
:1004300020FA04F001FA02F340EA030021FA04F37F
:1004400045EA030130BDC4F10C04C4F1200220FAD6
:1004500002F001FA04F340EA0300294630BD21FA14
:1004600004F0294630BD94F0000F83F4801306BFDA
:1004700081F480110134013D4EE77FEA645C18BFCE
:100480007FEA655C29D094EA050F08BF90EA020F65
:1004900005D054EA000C04BF1946104630BD91EA5D
:1004A000030F1EBF0021002030BD5FEA545C05D160
:1004B0004000494128BF41F0004130BD14F580049F
:1004C0003CBF01F5801130BD01F0004545F0FE4113
:1004D00041F470014FF0000030BD7FEA645C1ABF48
:1004E000194610467FEA655C1CBF0B46024650EA7F
:1004F000013406BF52EA033591EA030F41F40021AB
:1005000030BD00BF90F0000F04BF0021704730B530
:100510004FF4806404F132044FF000054FF0000105
:1005200050E700BF90F0000F04BF0021704730B5C6
:100530004FF4806404F1320410F0004548BF40429B
:100540004FF000013EE700BF42004FEAE2014FEAF0
:1005500031014FEA02701FBF12F07F4393F07F4FCB
:1005600081F06051704732F07F4208BF704793F0CE
:100570007F4F04BF41F40021704730B54FF46074E1
:1005800001F0004521F000411CE700BF50EA0102E4
:1005900008BF704730B54FF000050AE050EA01028D
:1005A00008BF704730B511F0004502D5404261EBFD
:1005B00041014FF4806404F132045FEA915C3FF43E
:1005C000D8AE4FF003025FEADC0C18BF03325FEADB
:1005D000DC0C18BF033202EBDC02C2F1200300FA8C
:1005E00003FC20FA02F001FA03FE40EA0E0021FAB1
:1005F00002F11444BDE600BF70B54FF0FF0C4CF49F
:10060000E06C1CEA11541DBF1CEA135594EA0C0F50
:1006100095EA0C0F00F0DEF82C4481EA030621EA8B
:100620004C5123EA4C5350EA013518BF52EA0335C6
:1006300041F4801143F4801338D0A0FB02CE4FF078
:100640000005E1FB02E506F00042E0FB03E54FF0A8
:100650000006E1FB03569CF0000F18BF4EF0010EA0
:10066000A4F1FF04B6F5007F64F5407404D25FEA9C
:100670004E0E6D4146EB060642EAC62141EA55514F
:100680004FEAC52040EA5E504FEACE2EB4F1FD0C91
:1006900088BFBCF5E06F1ED8BEF1004F08BF5FEA0F
:1006A000500E50F1000041EB045170BD06F00046C1
:1006B00046EA010140EA020081EA0301B4EB5C046E
:1006C000C2BFD4EB0C0541EA045170BD41F4801166
:1006D0004FF0000E013C00F3AB8014F1360FDEBF8B
:1006E000002001F0004170BDC4F10004203C35DA67
:1006F0000C341BDC04F11404C4F1200500FA05F3EA
:1007000020FA04F001FA05F240EA020001F000428A
:1007100021F0004110EBD37021FA04F642EB060100
:100720005EEA430E08BF20EAD37070BDC4F10C042A
:10073000C4F1200500FA04F320FA05F001FA04F2EE
:1007400040EA020001F0004110EBD37041F10001DA
:100750005EEA430E08BF20EAD37070BDC4F12005E5
:1007600000FA05F24EEA020E20FA04F301FA05F24D
:1007700043EA020321FA04F001F0004121FA04F2F5
:1007800020EA020000EBD3705EEA430E08BF20EAC5
:10079000D37070BD94F0000F0FD101F000464000FF
:1007A00041EB010111F4801F08BF013CF7D041EA81
:1007B000060195F0000F18BF704703F00046520085
:1007C00043EB030313F4801F08BF013DF7D043EA56
:1007D0000603704794EA0C0F0CEA135518BF95EA0C
:1007E0000C0F0CD050EA410618BF52EA4306D1D193
:1007F00081EA030101F000414FF0000070BD50EAB2
:10080000410606BF1046194652EA430619D094EA3B
:100810000C0F02D150EA013613D195EA0C0F05D125
:1008200052EA03361CBF104619460AD181EA030179
:1008300001F0004141F0FE4141F470014FF0000031
:1008400070BD41F0FE4141F4780170BD70B54FF0CC
:10085000FF0C4CF4E06C1CEA11541DBF1CEA13554C
:1008600094EA0C0F95EA0C0F00F0A7F8A4EB05042E
:1008700081EA030E52EA03354FEA013100F0888025
:100880004FEA03334FF0805545EA131343EA1263EE
:100890004FEA022245EA111545EA10654FEA0026A3
:1008A0000EF000419D4208BF964244F1FD0404F55C
:1008B000407402D25B084FEA3202B61A65EB0305B8
:1008C0005B084FEA32024FF480104FF4002CB6EB75
:1008D000020E75EB030E22BFB61A754640EA0C00F5
:1008E0005B084FEA3202B6EB020E75EB030E22BF35
:1008F000B61A754640EA5C005B084FEA3202B6EB76
:10090000020E75EB030E22BFB61A754640EA9C0034
:100910005B084FEA3202B6EB020E75EB030E22BF04
:10092000B61A754640EADC0055EA060E18D04FEAC2
:10093000051545EA16754FEA06164FEAC30343EA62
:1009400052734FEAC2025FEA1C1CC0D111F4801F2F
:100950000BD141EA00014FF000004FF0004CB6E728
:1009600011F4801F04BF01430020B4F1FD0C88BFC7
:10097000BCF5E06F3FF6AFAEB5EB030C04BFB6EBD2
:10098000020C5FEA500C50F1000041EB045170BDC5
:100990000EF0004E4EEA113114EB5C04C2BFD4EBF2
:1009A0000C0541EA045170BD41F480114FF0000E76
:1009B000013C90E645EA060E8DE60CEA135594EAF2
:1009C0000C0F08BF95EA0C0F3FF43BAF94EA0C0FF5
:1009D0000AD150EA01347FF434AF95EA0C0F7FF46A
:1009E00025AF104619462CE795EA0C0F06D152EABE
:1009F00003353FF4FDAE1046194622E750EA4106A2
:100A000018BF52EA43067FF4C5AE50EA41047FF4B2
:100A10000DAF52EA43057FF4EBAE12E708B50C4880
:100A20000C4B03604FF4E133436000238360C360E9
:100A300003610C2242618361C3610362436201F07E
:100A400048FB00B908BD4D21034800F02BFAF9E737
:100A500094000020004400408C3C00080268114BC8
:100A60009A4200D0704700B587B003F5E633DA69E3
:100A700042F40032DA61DB6903F400330093009B37
:100A80000C23019302230293002303930323049373
:100A90000723059301A94FF0904000F0B1FF07B084
:100AA0005DF804FB0044004010B514464FF6FF7398
:100AB00092B2024801F06EFA204610BD9400002068
:100AC0001549D1F8883043F47003C1F88830134BCE
:100AD0001A6842F001021A605868114A02405A60CE
:100AE0001A6822F0847222F480321A601A6822F4A2
:100AF00080221A605A6822F4FE025A60DA6A22F0F2
:100B00000F02DA62186B074A02401A6300229A60E9
:100B10004FF000638B60704700ED00E00010024072
:100B20000CC07FF8CCFC00FF70B506460D460A4CA1
:100B300000220821204601F039F8304600F064FA1E
:100B4000284600F061FA054601220821204601F0FE
:100B50002DF8284670BD00BF0004004808B50021EC
:100B6000FFF7E2FF08BD08B540F08000FFF7DCFFAB
:100B700008BD000010B50446094B18700120FFF7AE
:100B8000EDFF41B221F01C012143C9B20120FFF762
:100B9000EAFF2720FFF7E2FF10F0800FF9D010BD29
:100BA0004701002038B50E4B984203D800EB800374
:100BB0005800F8E780000B4CA4FB0034250BC4F36D
:100BC00087510720FFF7CFFFC4F387310820FFF7D5
:100BD000CAFFA90101F0C0010920FFF7C4FF38BD19
:100BE000FFE0F50583DE1B4310B50446207820B1F5
:100BF0006178FFF7B8FF0234F8E710BD70B50C4616
:100C000016460D4B187081EA01135BB2DAB283EA23
:100C1000820303F0C003094A1370094D2846FFF709
:100C2000E3FF2846FFF7E0FF3046FFF7BBFF214612
:100C30003020FFF798FF70BD46010020040100201E
:100C4000BC3C000870B505463D20FFF787FF00F06B
:100C5000FE068DB1002400E001340F2C0ADC04F103
:100C60003E002978C0B2FFF77EFF2B78002BF3D02F
:100C70000135F1E746F0010631463D20FFF773FFED
:100C800070BD10B504461120FFF768FF41B221F096
:100C90001F012143C9B21120FFF765FF10BD0000FD
:100CA000F8B5324B1B78102B1BD107460E46272078
:100CB000FFF754FF2E4B1B7800F04000834204D016
:100CC00083F040032A4A13708BB92820FFF746FFB0
:100CD00010F0040F44D00020FFF740FF0546002429
:100CE00020E01020FFF746FF4FF0FF3533E02420CF
:100CF000FFF734FF1F4B18701820FFF72FFFC0F3CA
:100D0000C2001D4B18701F20FFF728FF00021B4C6C
:100D100020802020FFF722FF00B223881843208084
:100D2000D3E70134AC4206DA0020FFF717FFB442E4
:100D3000F7DA3855F5E73B78114A117803F0C0022D
:100D4000914210D103F03F030E4A12789A4202D02A
:100D50000BB13F2A01D12846F8BD4FF0FF35FAE725
:100D60004FF0FF35F7E74FF0FF35F4E7470100207C
:100D7000840000208A0100208B01002088010020CF
:100D8000040100204601002008B5114801F0C2FF0F
:100D900040F2B112D2210120FFF730FF0020FFF70F
:100DA00051FF1020FFF76DFF002302E0094AD354E2
:100DB00001333D2BFADD0121074801F011FFD2225A
:100DC00040F2B111054801F00BFF012008BD00BF42
:100DD000443D000808010020503D0008843D000803
:100DE00030B587B0244801F0FBFE40212348FFF7CF
:100DF00057FF051E01DA07B030BD204B1A785B782B
:100E0000A91E0491039302921D4BB3F90030019384
:100E10001C4B1B7800931C4B1B78D22240F2B11163
:100E20001A4801F0DDFE0224AC4206DA134B195DCC
:100E3000174801F0D5FE0134F6E7114BB3F9004035
:100E4000002C16DB134D104B1878FFF76BFB0022BC
:100E5000114BFFF7D1FB0B4B1B78029301940095CC
:100E600002460B460D4801F0BBFE0A2001F0D0FE01
:100E7000C1E70B4DE7E700BFFC3C0008480100203C
:100E8000880100208B0100208A010020043D000819
:100E90002C3D0008F83C00080000E03F343D00080D
:100EA000B43D0008FEE7000000B5A7B002231C9384
:100EB00001231F9310232093002322931CA801F0E9
:100EC000E3F930BB0F2317930021189119911A9160
:100ED0001B9117A801F010FDF8B90223019300231C
:100EE000049301A800F00EFCD8B901F0F1FD0F4BFE
:100EF000A3FB0030800901F09BF9042001F0AEF95A
:100F0000002211464FF0FF3001F05EF927B05DF886
:100F100004FBCB210648FFF7C5FFD9210448FFF7A2
:100F2000C1FFE0210248FFF7BDFF00BFD34D6210B3
:100F3000B03C000808B501F015F9FFF7B5FF00F067
:100F4000B7F8FFF76BFD00F00DF8FFF71DFF10B9C4
:100F5000FFF746FFFCE7024801F0DCFEF8E700BFC0
:100F6000E83C000808B51148114B03604FF4827348
:100F70004360002383604FF4E062C2600361436119
:100F80004FF4007282610822C2610362436283628D
:100F90000721C1620363426300F0FAF900B908BD9A
:100FA00047210448FFF77EFFF9E700BF8C010020CE
:100FB00000380040B83D00080268114B9A4200D04A
:100FC000704700B587B003F5EC33DA6942F480422C
:100FD000DA61DB6903F480430093009B4FF46043C4
:100FE0000193022302930023039303230493052315
:100FF000059301A9034800F003FD07B05DF804FB69
:10100000003800400004004800B587B08DF80F009C
:101010000A23009301230DF117020DF10F0104487B
:1010200000F013FA9DF8170007B05DF804FB00BF4D
:101030008C01002000B583B01C4B9A6942F001027C
:101040009A619B6903F001030193019B032001F066
:10105000A9F8002211466FF00B0001F0B5F800224C
:1010600011466FF00A0001F0AFF8002211466FF050
:10107000090001F0A9F8002211466FF0040001F008
:10108000A3F8002211466FF0030001F09DF8002242
:1010900011466FF0010001F097F8002211464FF061
:1010A000FF3001F091F803B05DF804FB001002403E
:1010B000F0B58BB0434B5A6942F400225A615A6929
:1010C00002F400220092009A5A6942F480025A61A6
:1010D0005A6902F480020192019A5A6942F400327C
:1010E0005A615A6902F400320292029A5A6942F431
:1010F00080225A615A6902F480220392039A5A6943
:1011000042F480125A615B6903F480130493049BD8
:10111000002220214FF0904000F048FD2A4E00228E
:101120000821304600F042FD4FF6FF73059303257A
:1011300006950024079405A9244800F061FC059554
:101140000695079405A9224800F05AFC4FF6D353A0
:1011500005930695079405A94FF0904000F050FCC8
:1011600020230593012706970794089405A94FF0BB
:10117000904000F045FC41F6F773059306950794FF
:1011800005A9304600F03CFC4FF40073059306942B
:10119000079405A94FF0904000F032FC042305931A
:1011A0000695079405A90B4800F02AFC082305932F
:1011B00006970794089405A9304600F021FC0BB06F
:1011C000F0BD00BF001002400004004800080048C5
:1011D00000140048000C00487047FEE7FEE7FEE7F9
:1011E000FEE770477047704708B500F0CDFF01F08B
:1011F00046F808BDF8B505460F4616461C4639E0C8
:101200002CB100F0C9FF069BC01AA04232D32A6855
:10121000536823F0E00353606B68B3F5827F0BD013
:10122000AB6AB3F5005F14D0012385F85D3000236D
:1012300085F85C30032025E0AB68B3F5004F02D0A1
:10124000B3F5806FECD12A68136823F04003136074
:10125000E6E72A68136823F4005313602A681368CA
:1012600043F400531360DFE70123B34209D0B4F124
:10127000FF3FC5D12B689B6837EA0303F4D00023F6
:10128000F3E70020F8BDF0B583B007460C461546DD
:101290001E4602E0B6F1FF3F10D13A689368234042
:1012A000AB423FD0B4F5C06FF4D1002DF2D1137B27
:1012B000DBB28DF807309DF80730EBE72EB100F078
:1012C0006BFF089BC01AB042E7D33A68536823F01B
:1012D000E00353607B68B3F5827F0BD0BB6AB3F544
:1012E000005F14D0012387F85D30002387F85C305D
:1012F000032018E0BB68B3F5004F02D0B3F5806F50
:10130000ECD13A68136823F040031360E6E73A68CB
:10131000136823F4005313603A68136843F40053CE
:101320001360DFE7002003B0F0BD70B582B0044663
:101330000D46164600920B4600224FF4C051FFF7AF
:10134000A2FFB8B900962B46002280212046FFF765
:1013500051FFB8B900962B4600224FF4C0612046D9
:10136000FFF791FF034650B1236E43F0200323663D
:10137000032304E0236E43F020032366032318466F
:1013800002B070BD236E43F0200323660323F6E70B
:10139000002858D010B504460023836290F85D30D1
:1013A000002B45D0022384F85D302268136823F0B7
:1013B00040031360E368B3F5E06F3ED90022B3F554
:1013C000706F04D0B3F5E06F01D00021A162216BF2
:1013D00021B9B3F5E06F33D9022323636368A168B1
:1013E0000B4321690B4361690B43A16901F400714F
:1013F0000B43E1690B43216A0B43A06A2168034355
:101400000B60638B03F00403616A0B43616B0B4356
:10141000E1680B43216813434B602268D36923F4CE
:101420000063D36100202066012384F85D3010BD85
:1014300080F85C30FFF7C0FDB4E74FF48052BEE7A0
:1014400001232363CAE7012070472DE9F843994639
:10145000089D90F85C30012B00F0518104460F4646
:101460001646012380F85C3000F096FE804694F822
:101470005D30DBB26268012B0AD0B2F5827F40F0AA
:101480002981A268002A40F02E81042B40F02D8192
:10149000002F00F02C81002E00F02B81B9F1000FFD
:1014A00000F0298194F85D30DBB2042B02D00523D3
:1014B00084F85D30002323662664A4F84690A4F8DF
:1014C0004490A763A4F83E90A4F83C90E36423659D
:1014D000E368B3F5E06F04D8B4F846309BB2012B53
:1014E00022D92268536823F48053536023681A6812
:1014F00012F0400F03D11A6842F040021A60E3680C
:10150000B3F5E06F54D963681BB1E38F9BB2012B35
:1015100007D1236837F8022BDA60E38F013B9BB2D7
:10152000E3874FF001091CE02268536843F48053BD
:101530005360DBE7B4F846309BB27BB123689A680E
:1015400012F0010F0AD0DB6826F8023BB4F84630EF
:10155000013B9BB2A4F846304FF00109B5F1FF3FC3
:101560001ED1E38F9BB22BB9B4F846309BB2002B4F
:1015700000F0A480B9F1000FDCD0E38F9BB2002B08
:10158000D8D023689A6812F0020FD3D037F8022B14
:10159000DA60E38F013B9BB2E3874FF00009C9E7B4
:1015A00000F0FAFDA0EB0800A842DAD3032092E095
:1015B00063681BB1E38F9BB2012B0BD1E38F9BB20E
:1015C000012B0AD9236837F8022BDA60E38F023B3C
:1015D0009BB2E3874FF0010928E0236817F8012B3D
:1015E0001A73E38F013B9BB2E387F3E717F8012BF4
:1015F0001A73E38F013B9BB2E3874FF0000935E09C
:101600002268536843F4805353604FF001090AE0A5
:101610001B7B06F8013BB4F84630013B9BB2A4F8B3
:1016200046304FF00109B5F1FF3F3FD1E38F9BB248
:1016300023B9B4F846309BB2002B3FD0B9F1000F6C
:1016400014D0E38F9BB28BB123689A6812F0020F1B
:101650000CD0E28F92B2012AC8D937F8022BDA6097
:10166000E38F023B9BB2E3874FF00009B4F84630AA
:101670009BB2002BD7D023689A6812F0010FD2D00A
:10168000B4F8462092B2012AC2D9DB6826F8023BA0
:10169000B4F84630023B9BB2A4F84630B4F846306A
:1016A0009BB2012BACD94FF00109BCE700F074FDEF
:1016B000A0EB0800A842B9D303200CE0424629461B
:1016C0002046FFF732FE08B120232366236EA3B91C
:1016D000002000E00220012384F85D30002384F81C
:1016E0005C30BDE8F8830220F5E70220F3E7012033
:1016F000F1E70120EFE70120EDE70120EBE7022011
:10170000EFE70000F0B583B00446036813F4803FB0
:1017100048D0A14BDB6913F0805F40F022819E4BE3
:10172000DA6942F08052DA61DB6903F08053019399
:10173000019B0125994B1B6813F4807F00F01381F6
:10174000954B1B6A13F4407322D0626802F4407216
:101750009A421DD09048016A21F440764FF48033BC
:1017600093FAA3F2B2FA82F28D4F3A4492004FF00C
:10177000010CC2F800C093FAA3F3B3FA83F33B441D
:101780009B0000221A60066211F0010F40F00081F8
:10179000814A136A23F4407361680B431362002D7E
:1017A00040F02381236813F0010F06D07A4A136BAF
:1017B00023F00303A1680B431363236813F0020FA4
:1017C00006D0754A136B23F44033E1680B4313636F
:1017D000236813F0040F06D06F4A136B23F44023E1
:1017E00021690B431363236813F0200F06D06A4A64
:1017F000136B23F01003E1690B431363236813F4A5
:10180000003F06D0644A536823F48003616D0B43A4
:101810005360236813F0400F06D05F4A136B23F028
:101820002003216A0B431363236813F4802F06D02F
:10183000594A136B23F04003616A0B431363236817
:1018400013F0080F06D0544A136B23F44013616958
:101850000B431363236813F0100F06D04E4A136B2B
:1018600023F44003A1690B431363236813F4007F3F
:1018700006D0494A536823F40003216B0B4353609D
:10188000236813F0800F06D0434AD36A23F4F87319
:10189000A16A0B43D362236813F4807F06D03E4ACB
:1018A000D36A23F47853E16A0B43D362236813F4B9
:1018B000805F06D0384A136B23F48073616B0B434F
:1018C0001363236813F4005F06D0334A136B23F4C9
:1018D0000073216C0B431363236813F4801F06D03D
:1018E0002D4A136B23F08073A16B0B4313632368A2
:1018F00013F4001F06D0284A136B23F00073E16B2A
:101900000B431363236813F4800F06D0224A136B32
:1019100023F48063616C0B431363236813F4000F9B
:1019200006D01D4A136B23F40063A16C0B431363B1
:10193000236813F0807F06D0174A136B23F40053FB
:10194000E16C0B431363236813F0007F54D0124AF9
:10195000136B23F40043216D0B431363002003B08A
:10196000F0BD0025E6E60D4A136843F4807313606A
:1019700000F012FC0646094B1B6813F4807F7FF4CD
:10198000DFAE00F009FC801B6428F4D90320E6E7F1
:1019900000F002FC06461BE0001002400070004010
:1019A00000819010154B196A022393FAA3F3B3FA3E
:1019B00083F303F01F03012202FA03F30B427FF4C7
:1019C000E7AE00F0E9FB801B41F28833984211D862
:1019D000022393FAA3F293FAA3F3002BE2D102239A
:1019E00093FAA3F3054B596ADEE7D36923F08053DA
:1019F000D361D7E60320B2E70020B0E70010024031
:101A0000F0B482B0002336E0062400E00024B440A5
:101A10003C430235614E46F82540614C2568D4436D
:101A200004EA05064F6817F4803F01D042EA050634
:101A30005B4D2E606D6804EA05064F6817F4003FA1
:101A400001D042EA0506564D6E60AD6804EA05060F
:101A50004F6817F4801F01D042EA0506504DAE6072
:101A6000ED682C404E6816F4001F01D042EA0504D0
:101A70004B4AD46001330A6832FA03F400F08B80D9
:101A800001249C402240F5D04D68022D01D0122D3A
:101A900010D1DE08083650F826C003F00705AF0065
:101AA0000F25BD402CEA050C0D69BD4045EA0C052B
:101AB00040F8265006685F000325BD40ED4305EA67
:101AC000060C4E6806F00306BE4046EA0C060660A9
:101AD0004E6806F1FF3CBCF1010F03D9112E01D075
:101AE000122E10D1866805EA060CCE68BE4046EA82
:101AF0000C068660466826EA04044E68C6F30016A3
:101B00009E4026434660C46825408C68BC402C43F8
:101B1000C4604C6814F0805FACD0224CA56945F0DD
:101B20000105A561A46904F001040194019C9D08CC
:101B3000AE1C1A4C54F8267003F00304A6000F24C0
:101B4000B44027EA0407B0F1904F3FF45FAF164C62
:101B5000A04216D004F58064A04214D004F580643D
:101B6000A04212D004F58064A04210D004F5806435
:101B7000A0420ED004F58064A0423FF445AF072494
:101B800045E7012443E7022441E703243FE7042417
:101B90003DE705243BE702B0F0BC70470000014080
:101BA0000004014000100240000400480AB18161B5
:101BB000704781627047000010B50446836802696F
:101BC000134342691343C269134301680868A04A7A
:101BD000024013430B602268536823F44053E168CA
:101BE0000B435360A369226A1A4321688B6823F46C
:101BF000306313438B602268964B9A420DD0964B0C
:101C00009A421DD0954B9A4243D0954B9A4258D058
:101C1000944B9A426DD0102327E003F558431B6B79
:101C200003F00303032B09D8DFE803F00204067B6B
:101C300001231AE0042318E0082316E0102314E01F
:101C400003F5E6331B6B03F44033B3F5803F6AD0F2
:101C500007D9B3F5003F68D0B3F5403F17D1022351
:101C600003E00BB9002300E01023E169B1F5004F58
:101C700069D0082B00F2E980DFE813F0AD00B9006D
:101C8000C500E700D100E700E700E700DD00102312
:101C9000EBE703F5E4331B6B03F44023B3F5802F2C
:101CA00045D007D9B3F5002F43D0B3F5402F06D167
:101CB0000223DAE70BB90023D7E71023D5E7102377
:101CC000D3E703F5E2331B6B03F44013B3F5801F36
:101CD00031D007D9B3F5001F2FD0B3F5401F06D17F
:101CE0000223C2E70BB90023BFE71023BDE710238F
:101CF000BBE703F5E0331B6B03F44003B3F5800F40
:101D00001DD007D9B3F5000F1BD0B3F5400F06D196
:101D10000223AAE70BB90023A7E71023A5E71023A6
:101D2000A3E70223A1E704239FE708239DE70423F9
:101D30009BE7082399E7042397E7082395E7042303
:101D400093E7082391E7082B42D8DFE803F0051753
:101D500022412D414141380000F0C0FE6268530825
:101D600003EB4003B3FBF2F39BB2002023F00F021E
:101D7000C3F3420313432268D36010BD00F0C4FED6
:101D80006268530803EB4003B3FBF2F39BB20020FD
:101D9000ECE76268530803F5740303F51053B3FBD3
:101DA000F2F39BB20020E1E700F06EFD6268530899
:101DB00003EB4003B3FBF2F39BB20020D6E762686B
:101DC000530803F58033B3FBF2F39BB20020CDE759
:101DD00001200023CAE700F081FE636800EB530096
:101DE000B0FBF3F0236880B2D8600020C5E700F0B4
:101DF0008BFE636800EB5300B0FBF3F0236880B206
:101E0000D8600020B9E761684B0803F5F40303F5D7
:101E10009053B3FBF1F39BB2D3600020ADE700F029
:101E200033FD636800EB5300B0FBF3F0236880B22E
:101E3000D8600020A1E761684B0803F50043B3FBBD
:101E4000F1F39BB2D360002097E7012095E700BF34
:101E5000F369FFEF003801400044004000480040B3
:101E6000004C004000500040436A13F0010F06D0C0
:101E70000268536823F40033816A0B435360436A5A
:101E800013F0020F06D00268536823F48033C16A4E
:101E90000B435360436A13F0040F06D00268536883
:101EA00023F48023016B0B435360436A13F0080F44
:101EB00006D00268536823F40043416B0B43536020
:101EC000436A13F0100F06D00268936823F480531E
:101ED000816B0B439360436A13F0200F06D00268B6
:101EE000936823F40053C16B0B439360436A13F070
:101EF000400F0AD00268536823F48013016C0B432F
:101F00005360036CB3F5801F0BD0436A13F0800F4E
:101F100006D00268536823F40023816C0B4353609E
:101F200070470268536823F4C003416C0B4353604D
:101F3000EBE72DE9F04105460F4616469846069C0C
:101F40002B68DB6937EA03030CBF01230023B3428C
:101F50001DD1B4F1FF3FF3D02CB100F01DF9A0EB7F
:101F60000800A042ECD92A68136823F4D0731360E8
:101F70002A68936823F001039360202385F8693071
:101F800085F86A30002385F86830032000E00020DF
:101F9000BDE8F0812DE9F04182B01E4690F869302D
:101FA000DBB2202B4ED104460D46904600294ED080
:101FB000002A4ED090F86830012B4CD0012380F8D5
:101FC00068300023C366212380F8693000F0E4F80C
:101FD0000746A4F85080A4F8528003E0236815F85F
:101FE000012B1A85B4F852309BB2DBB1B4F85230F1
:101FF000013B9BB2A4F8523000963B460022802160
:102000002046FFF796FF40BBA368B3F5805FE5D19C
:102010002369002BE2D1226835F8023BC3F30803A1
:102020001385DFE700963B46002240212046FFF75C
:1020300080FF034698B9202284F86920002284F8A2
:10204000682000E00223184602B0BDE8F0810123B9
:10205000F9E70123F7E70223F5E70323F3E7032377
:10206000F1E730B583B004460023C36600F094F86E
:10207000054623681B6813F0080F0ED123681B6800
:1020800013F0040F17D1202384F8693084F86A30E4
:10209000002084F8680003B030BD6FF07E430093E9
:1020A000034600224FF400112046FFF742FF0028AC
:1020B000E4D00320EFE76FF07E4300932B4600222D
:1020C0004FF480012046FFF734FF0028DBD00320C7
:1020D000E1E778B310B5044690F869300BB32423D8
:1020E00084F869302268136823F0010313602046E6
:1020F000FFF762FD012813D0636ABBB922685368F9
:1021000023F4904353602268936823F02A0393607A
:102110002268136843F0010313602046FFF7A1FF14
:1021200010BD80F86830FEF799FCD8E72046FFF72D
:102130009BFEE3E70120704710B50446074B186883
:10214000074BA3FB0030800900F072F80022214603
:102150004FF0FF3000F038F8002010BD00000020E4
:10216000D34D621008B5074A136843F0100313609B
:10217000032000F017F80020FFF7DEFFFEF75AFFFC
:10218000002008BD00200240024A1368013313609A
:10219000704700BFF0010020014B1868704700BF76
:1021A000F0010020074AD36823F4E0631B041B0CF2
:1021B000000200F4E060184340F0BF6040F40030DB
:1021C000D060704700ED00E030B4174BDB68C3F31C
:1021D0000223C3F10704042C28BF04241D1D062D6F
:1021E00001D9033B00E000234FF0FF3505FA04F46A
:1021F00021EA0401994005FA03F322EA0303194393
:10220000002809DB0901C9B200F1604000F5614016
:1022100080F8001330BC704700F00F000901C9B20C
:10222000024B1954F6E700BF00ED00E014ED00E0AA
:102230000138B0F1807F0AD2064B5860064AF0217F
:1022400082F823100020986007221A60704701204E
:10225000704700BF10E000E000ED00E0042805D06A
:10226000054A136823F0040313607047024A136899
:1022700043F004031360704710E000E0704708B5B6
:10228000FFF7FCFF08BD000070B582B0044603688C
:1022900013F0010F3DD0C84B5B6803F00C03042B17
:1022A00020D0C54B5B6803F00C03082B13D0636888
:1022B000B3F5803F6AD0002B40F08D8003F180435E
:1022C00003F504331A6822F480321A601A6822F483
:1022D00080221A605FE0B84B5B6803F4C033B3F54B
:1022E000803FE4D14FF4003393FAA3F3B24B196863
:1022F0004FF4003393FAA3F3B3FA83F303F01F030D
:10230000012202FA03F30B4203D06368002B00F0B2
:10231000A982236813F0020F00F0C080A64B5B680F
:1023200013F00C0F00F09780A34B5B6803F00C03D5
:10233000082B00F08880E368002B00F0ED8001227C
:1023400092FAA2F3B3FA83F303F1845303F58413EF
:102350009B001A60FFF720FF0546022393FAA3F3C0
:10236000954B1968022393FAA3F3B3FA83F303F0AE
:102370001F03012202FA03F30B4240F0BE80FFF775
:102380000BFF401B0228E8D9032074E28A4A136835
:1023900043F4803313606368002B36D0FFF7FCFEF4
:1023A00005464FF4003393FAA3F3834B19684FF4B7
:1023B000003393FAA3F3B3FA83F303F01F0301226C
:1023C00002FA03F31942A4D1FFF7E6FE401B64288A
:1023D000E7D903204FE2B3F5A02F09D0764B1A6856
:1023E00022F480321A601A6822F480221A60D2E73E
:1023F00003F18043A3F53C331A6842F480221A604B
:102400001A6842F480321A60C5E7FFF7C5FE054638
:102410004FF4003393FAA3F3674B19684FF400337A
:1024200093FAA3F3B3FA83F303F01F03012202FA32
:1024300003F319423FF46DAFFFF7AEFE401B642873
:10244000E6D9032017E25C4B5B6803F4C033B3F5B5
:10245000004F7FF470AF022393FAA3F3564B196831
:10246000022393FAA3F3B3FA83F303F01F030122C9
:1024700002FA03F3194203D0E368934240F0F48177
:102480004D48036823F0F8032169F82292FAA2F27A
:10249000B2FA82F201FA02F213430360236813F0E6
:1024A000080F00F08D806369002B5CD0012191FA48
:1024B000A1F2B2FA82F2414B13449B001960FFF77C
:1024C0006BFE0546022393FAA3F293FAA3F293FA62
:1024D000A3F2394A516A93FAA3F3B3FA83F303F0F0
:1024E0001F03012202FA03F30B4269D1FFF754FEE6
:1024F000401B0228E6D90320BDE12F48036823F0E2
:10250000F8032169F82292FAA2F2B2FA82F201FAF1
:1025100002F213430360C1E7012393FAA3F3B3FA72
:1025200083F303F1845303F584139B0000221A60A4
:10253000FFF732FE0546022393FAA3F31E4B1968F8
:10254000022393FAA3F3B3FA83F303F01F030122E8
:1025500002FA03F31942A1D0FFF71EFE401B022826
:10256000E9D9032087E1012292FAA2F2B2FA82F2BB
:10257000124B13449B0000221A60FFF70DFE054624
:10258000022393FAA3F293FAA3F293FAA3F20A4A6C
:10259000516A93FAA3F3B3FA83F303F01F03012202
:1025A00002FA03F30B420BD0FFF7F6FD401B0228A3
:1025B000E6D903205FE100BF0010024020819010A7
:1025C000236813F0040F00F0A980AD4BDB6913F012
:1025D000805F20D1AA4BDA6942F08052DA61DB6970
:1025E00003F080530193019B0125A64B1B6813F454
:1025F000807F12D0A368012B23D073BB03F18043EB
:1026000003F504331A6A22F001021A621A6A22F0F0
:1026100004021A621AE00025E7E79A4A136843F4B5
:1026200080731360FFF7B8FD0646964B1B6813F4E2
:10263000807FDFD1FFF7B0FD801B6428F5D9032030
:1026400019E18F4A136A43F001031362A368002B58
:102650003CD0FFF7A1FD06462EE0052B09D0884BA4
:102660001A6A22F001021A621A6A22F004021A623D
:10267000ECE7834B1A6A42F004021A621A6A42F0CB
:1026800001021A62E2E7022393FAA3F37C4B596A30
:10269000022393FAA3F3B3FA83F303F01F03012297
:1026A00002FA03F3194238D1FFF776FD801B41F29D
:1026B0008833984200F2DA80022393FAA3F293FA65
:1026C000A3F3002BDFD06E4B196AE1E7FFF764FD3F
:1026D000064618E0022393FAA3F3694B596A0223D2
:1026E00093FAA3F3B3FA83F303F01F03012202FA70
:1026F00003F3194211D0FFF74FFD801B41F28833DD
:10270000984200F2B580022393FAA3F293FAA3F35E
:10271000002BDFD05A4B196AE1E7B5BBA369002B48
:1027200000F0A880564A526802F00C02082A00F015
:10273000A480022B2FD04FF0807393FAA3F3B3FA47
:1027400083F303F1845303F584139B0000221A6082
:10275000FFF722FD04464FF0007393FAA3F3484BB2
:1027600019684FF0007393FAA3F3B3FA83F303F0FD
:102770001F03012202FA03F3194271D0FFF70CFD87
:10278000001B0228E7D9032075E03D4AD36923F0F6
:102790008053D361C2E74FF0807393FAA3F3B3FA87
:1027A00083F303F1845303F584139B0000221A6022
:1027B000FFF7F2FC05464FF0007393FAA3F3304B9A
:1027C00019684FF0007393FAA3F3B3FA83F303F09D
:1027D0001F03012202FA03F3194206D0FFF7DCFCC3
:1027E000401B0228E7D9032045E0254AD36A23F09D
:1027F0000F03616A0B43D362536823F47613216A93
:10280000E06901430B4353604FF0807393FAA3F3E5
:10281000B3FA83F303F1845303F584139B0001227D
:102820001A60FFF7B9FC04464FF0007393FAA3F364
:10283000134B19684FF0007393FAA3F3B3FA83F3C1
:1028400003F01F03012202FA03F3194206D1FFF736
:10285000A3FC001B0228E7D903200CE000200AE0BB
:10286000002008E0012006E0012004E0032002E04F
:10287000032000E0002002B070BD0120FBE700BF94
:102880000010024000700040174B5B6803F00C0220
:10289000082A01D01548704703F470114FF47012E4
:1028A00092FAA2F2B2FA82F221FA02F21049885C9C
:1028B0000D4AD26A02F00F020F2191FAA1F1B1FA8A
:1028C00081F1CA400B498A5C13F4803F05D0074B65
:1028D000B3FBF2F300FB03F07047044BB3FBF2F3DE
:1028E00000FB03F0704700BF0010024000127A00A6
:1028F000C43D0008D43D0008714B1B6803F007037A
:102900008B420BD26E4A136823F007030B4313600C
:10291000136803F007038B4240F0CB8070B5036867
:1029200013F0020F06D0674A536823F0F00384685F
:10293000234353600D460446036813F0010F7AD019
:102940004368012B2FD0022B42D0022292FAA2F22E
:102950005C4A1068022292FAA2F2B2FA82F202F003
:102960001F02012101FA02F2104200F0A480554931
:102970004A6822F0030213434B60FFF70DFC064642
:102980006368012B39D0022B46D04E4B5B6813F0A5
:102990000C0F50D0FFF700FC801B41F288339842A7
:1029A000F3D9032084E04FF4003292FAA2F2454AB0
:1029B00010684FF4003292FAA2F2B2FA82F202F0F8
:1029C0001F02012101FA02F20242D0D101206FE080
:1029D0004FF0007292FAA2F23A4A10684FF0007279
:1029E00092FAA2F2B2FA82F202F01F02012101FA77
:1029F00002F21042BBD101205AE0324B5B6803F077
:102A00000C03042B17D0FFF7C7FB801B41F2883360
:102A10009842F2D903204BE02A4B5B6803F00C0389
:102A2000082B08D0FFF7B8FB801B41F2883398428F
:102A3000F2D903203CE0224B1B6803F00703AB42B2
:102A40000AD91F4A136823F007032B431360136846
:102A500003F00703AB4230D1236813F0040F06D014
:102A6000184A536823F4E063E1680B43536023681A
:102A700013F0080F07D0134A536823F460532169F9
:102A800043EAC1035360FFF7FFFE0E4B5B6803F0A0
:102A9000F003F02292FAA2F2B2FA82F2D3400A4A8A
:102AA000D35CD840094B18600020FFF745FB00209D
:102AB00070BD012070470120FAE70120F8E700BF50
:102AC0000020024000100240983C00080000002056
:102AD000014B1868704700BF0000002008B5FFF7E1
:102AE000F7FF074B5B6803F4E0634FF4E06292FA90
:102AF000A2F2B2FA82F2D340024AD35CD84008BDB7
:102B000000100240A83C000808B5FFF7E1FF074BA2
:102B10005B6803F460534FF4605292FAA2F2B2FA87
:102B200082F2D340024AD35CD84008BD0010024074
:102B3000A83C0008DFF834D0002103E00C4B5B58C0
:102B4000435004310B480C4B42189A42F6D30B4ABF
:102B500002E0002342F8043B094B9A42F9D3FDF707
:102B6000AFFF00F011F8FEF7E5F9FEE700000120E5
:102B7000843E00080000002068000020680000205B
:102B800004020020FEE7000070B50D4D0D4C641BE3
:102B9000A4100026A64209D10B4D0C4C01F06AF896
:102BA000641BA4100026A64205D170BD55F8043B55
:102BB00098470136EEE755F8043B98470136F2E7AF
:102BC0007C3E00087C3E00087C3E0008803E0008F9
:102BD00002440346934200D1704703F8011BF9E712
:102BE0000FB40A4B13B51C6824B1A36913B920466E
:102BF00000F072FA05AB049AA1680193204600F038
:102C000041FC02B0BDE8104004B070470400002051
:102C100038B5084B1C68054624B1A36913B9204692
:102C200000F05AFAA26829462046BDE8384000F074
:102C3000DBBE00BF0400002070B50E46054618B18B
:102C400083690BB900F048FAAB69AC6813B9284640
:102C500000F042FA2C4B9C4220D16C68636EDB077B
:102C600005D4A389980502D4A06D00F0D2FAA389F7
:102C700019071DD52369DBB1013EA36816F8011FB2
:102C8000013BA36039BB002B38DA22460A212846D3
:102C900000F048F8013011D00A2511E01B4B9C428E
:102CA00001D1AC68DAE71A4B9C4208BFEC68D5E763
:102CB0002146284600F088F80028DDD04FF0FF3587
:102CC000636EDA0705D4A3899B0502D4A06D00F0DA
:102CD000A1FA284670BD002B04DAA2699A4206DCEC
:102CE0000A2904D023685A1C22601970C5E72246BD
:102CF000284600F017F80130BFD1DFE723680A2526
:102D00005A1C22601D70DBE7083E0008283E0008C0
:102D1000E83D0008024B01461868FFF78DBF00BF71
:102D200004000020F8B50E461446054618B1836924
:102D30000BB900F0D1F9214B9C422BD16C68A369EF
:102D4000A360A3891A072FD523696BB32369206871
:102D5000C01A6369F6B28342374604DC214628462E
:102D600000F026F930BBA368013BA36023685A1C1E
:102D700022601E7063690130834204D0A389DB079F
:102D800006D50A2E04D12146284600F011F988B94B
:102D90003846F8BD0A4B9C4201D1AC68CFE7094BDD
:102DA0009C4208BFEC68CAE72146284600F00CF8B0
:102DB0000028CBD04FF0FF37EAE700BF083E0008FD
:102DC000283E0008E83D0008324B70B51D680646F5
:102DD0000C4625B1AB6913B9284600F07DF92E4B9E
:102DE0009C420FD16C68B4F90C309AB215072CD400
:102DF000D00611D40922326043F04003A3814FF082
:102E0000FF303EE0254B9C4201D1AC68EBE7244B00
:102E10009C4208BFEC68E6E7510712D5616B41B1EF
:102E200004F14403994202D0304600F059FA0023DD
:102E30006363A38923F02403A381002363602369D0
:102E40002360A38943F00803A38123694BB9A389B5
:102E500003F42073B3F5007F03D02146304600F021
:102E6000FFF9A28912F001030CD00023A36063696B
:102E70005B42A361236953B9B4F90C3013F08000AD
:102E8000BAD170BD920758BF6369A360F2E7002012
:102E9000F7E700BF04000020083E0008283E0008B5
:102EA000E83D00088A892DE9F041054610070C46E7
:102EB00058D44B68002B05DC0B6C002B02DC002087
:102EC000BDE8F081E66A002EF9D0002312F48052AA
:102ED0002F682B6032D0606DA3895A0705D56368CF
:102EE000C01A636B0BB1236CC01A00230246E66A5A
:102EF000216A2846B047431CA38906D129681D29A9
:102F000049D82A4ACA40D60745D500226260D9046A
:102F10002269226004D5421C01D12B6803B9606587
:102F2000616B2F600029CAD004F14403994202D09A
:102F3000284600F0D5F900206063C1E7216A01232B
:102F40002846B047411CC7D12B68002BC4D01D2B8D
:102F500001D0162B01D12F60B1E7A38943F04003C4
:102F6000A381ADE70F69002FA9D093070E6808BFB2
:102F70004B690F6018BF0023A6EB07088B60B8F100
:102F8000000F9CDD43463A46216AA66A2846B047B0
:102F9000002806DCA38943F04003A3814FF0FF30F3
:102FA0008EE70744A8EB0008E9E700BF01004020D6
:102FB00038B50B6905460C4613B90025284638BDBF
:102FC00018B183690BB900F087F8144B9C421BD1F0
:102FD0006C68B4F90C30002BEFD0626ED00704D4CB
:102FE000990502D4A06D00F014F928462146FFF798
:102FF00059FF636EDA070546E0D4A3899B05DDD44B
:10300000A06D00F007F9D9E7054B9C4201D1AC68EF
:10301000DFE7044B9C4208BFEC68DAE7083E000893
:10302000283E0008E83D0008002310B50446C0E92A
:103030000033836081814366C281C0E904338361C8
:10304000194608225C30FFF7C3FD054B6362054B50
:10305000A362054BE362054B2462236310BD00BFEE
:10306000993A0008BB3A0008F33A0008173B0008F9
:10307000014900F0AFB800BFB12F000870B54A1E7B
:10308000682555430E4605F1740100F077F90446B2
:1030900040B10021C0E900160C30A06005F16802C3
:1030A000FFF796FD204670BD014800F0B2B800BFA2
:1030B000FC010020014800F0ADB800BFFC01002079
:1030C000014800F0A6B800BFF7010020014800F059
:1030D000A1B800BFF701002010B50446FFF7F0FFCC
:1030E000A3691BB1BDE81040FFF7F0BFC4E912337C
:1030F0002365134B134A1B68A262A34204BF01233A
:10310000A361204600F020F86060204600F01CF823
:10311000A060204600F018F80022E06004216068FA
:10312000FFF782FF01220921A068FFF77DFF02223D
:103130001221E068FFF778FF0123A361D2E700BF07
:10314000E43D000871300008F8B50746FFF7ACFF12
:103150001E4B1E68B36913B93046FFF7BDFF4836F2
:10316000D6E90134013B03D533680BB33668F7E782
:10317000B4F90C50D5B9164BE36004F158006566FC
:1031800000F046F8FFF796FF2560C4E90155C4E951
:103190000455A5610822294604F15C00FFF718FDDB
:1031A000C4E90D55C4E912552046F8BD6834D9E785
:1031B00004213846FFF762FF044630600028D5D16D
:1031C000FFF778FF0C233B60EEE700BFE43D00080B
:1031D0000100FFFF2DE9F8438046894600F14804CD
:1031E000002614B93046BDE8F883D4E90175013FE3
:1031F00001D52468F5E7AB89012B07D9B5F90E3065
:10320000013303D029464046C84706436835EEE7F8
:1032100070477047704770B50E46B1F90E1000291F
:1032200096B014461D4607DA00232B60B3891A06B0
:1032300010D44FF480630EE06A4600F093FC00283F
:10324000F2DB019A02F47042A2F500535A425A414D
:103250002A60EEE740230020236016B070BD000016
:103260008B8973B59D0706460C4607D504F14703C5
:10327000236023610123636102B070BD01AB6A4624
:10328000FFF7C9FF00990546304600F077F848B9C6
:10329000B4F90C309A05EFD423F0030343F0020392
:1032A000A381E3E70D4BB362A389206043F0800361
:1032B000A381009B6361019B20615BB1B4F90E1097
:1032C000304600F061FC28B1A38923F0030343F0EA
:1032D0000103A381A3891D43A581CDE771300008B7
:1032E00038B50546002945D051F8043C0C1F002B89
:1032F000B8BFE41800F06AFC1F4A1368104633B9DF
:10330000636014602846BDE8384000F065BCA34205
:103310000CD921686218934204BF1A685B68636025
:1033200004BF521822600460ECE713465A680AB1E1
:10333000A242FAD919685818A0420BD1206801445A
:10334000581882421960DDD1106852685A600144F1
:103350001960D7E702D90C232B60D3E72068211826
:103360008A4204BF11685268626004BF0918216074
:103370005C60C7E738BD00BF88000020F8B5CD1CF1
:1033800025F0030508350C2D38BF0C25002D064609
:1033900001DBA94203D90C2333600020F8BD00F003
:1033A00015FC21490A6814469CB9204F3B6823B993
:1033B0002146304600F060FB38602946304600F078
:1033C0005BFB431C23D10C233360304600F004FC2C
:1033D000E3E723685B1B17D40B2B03D923601C4442
:1033E000256004E06368A2420CBF0B605360304666
:1033F00000F0F2FB04F10B00231D20F00700C21ABD
:10340000CCD01B1AA350C9E722466468CCE7C41C81
:1034100024F00304A042E3D0211A304600F02CFB34
:103420000130DDD1CFE700BF880000208C000020F4
:103430009368013B002B10B4936008DA9469A342AF
:1034400001DB0A2903D15DF8044BFFF76BBC13685D
:10345000581C1060197008465DF8044B7047F8B5A9
:1034600006460F461446D518AC4201D1002007E0AD
:103470003A4614F8011B3046FFF7DAFF431CF3D13C
:10348000F8BD00002DE9F04F0D469DB014461E46D4
:10349000074618B183690BB9FFF71EFE854B9D42A5
:1034A0001BD17D686B6ED90705D4AB899A0502D410
:1034B000A86DFFF7AEFEAB891B0701D52B69EBB9F1
:1034C00029463846FFF780FCC0B16B6ED8070ED591
:1034D0004FF0FF301DB0BDE8F08F774B9D4201D11A
:1034E000BD68DFE7754B9D4208BFFD68DAE7AB8931
:1034F0009905EDD4A86DFFF78DFEE9E70023099348
:1035000020238DF82930DFF8B891039630238DF809
:103510002A304FF0010A23461E4613F8012B0AB148
:10352000252AF9D1B6EB040B0BD05B46224629467F
:103530003846FFF794FF013000F0A380099B5B44FD
:1035400009933378002B00F09C8000234FF0FF326A
:10355000CDE905230136049307938DF853301A9370
:103560003446052214F8011B5548FCF739FE049B2C
:10357000C0B9DA0644BF20228DF85320180744BF93
:103580002B228DF8532032782A2A13D0079A3446FA
:1035900000200A26214611F8013B303B092B4BD96C
:1035A00070B914E0A0EB09000AFA00F01843049087
:1035B0002646D5E7039A111D12680391002A01DB04
:1035C000079204E0524243F00203079204932378E7
:1035D0002E2B0CD163782A2B33D1039B1A1D1B6829
:1035E0000392002BB8BF4FF0FF3302340593354EE2
:1035F000217803223046FCF7F3FD38B14023801BCD
:1036000003FA00F0049B03430134049314F8011BF4
:103610002D488DF828100622FCF7E2FD00283FD047
:103620002A4B13BB039B073323F007030833039391
:10363000099B434409936EE706FB023201200C46C6
:10364000A8E700230134059319460A26204610F8FE
:10365000012B303A092A03D9002BC8D00591C6E7BF
:1036600006FB012101230446F0E703AB00932A4641
:10367000174B04A93846AFF30080B0F1FF3F8046F6
:10368000D6D16B6ED90705D4AB899A0502D4A86D43
:10369000FFF7C0FDAB895B063FF51AAF099819E744
:1036A00003AB00932A460A4B04A9384600F088F879
:1036B000E3E700BF083E0008283E0008E83D000898
:1036C000483E00084E3E0008523E00080000000040
:1036D0005F3400082DE9F04791461F468A680B6960
:1036E000DDF820809342B8BF1346C9F8003091F846
:1036F000432006460C4612B10133C9F80030236856
:10370000990642BFD9F800300233C9F80030256865
:1037100015F0060507D104F1190AE368D9F800206D
:103720009B1AAB4228DC94F843302268003318BF60
:10373000012392062DD404F1430239463046C04796
:10374000013020D02368E568D9F8002003F0060393
:10375000042B08BFAD1AA36822690CBF25EAE575E2
:1037600000259342C4BF9B1AED184FF000091A348C
:103770004D451AD1002008E0012352463946304613
:10378000C047013003D14FF0FF30BDE8F08701356D
:10379000C3E7E1185A1C302081F84300224494F812
:1037A000451082F843100233C5E70123224639460B
:1037B0003046C0470130E6D009F10109D8E70000E2
:1037C0002DE9F04306460C4601F14300097E85B021
:1037D0006E29984617460C9B00F0BA8024D86329BE
:1037E00039D00AD8002900F0C380582900F0918010
:1037F00004F1420584F8421035E0642901D06929BA
:10380000F6D125681A6815F0800F02F104012CD05A
:1038100012681960002A03DA2D23524284F84330DB
:10382000DFF8BCC10A233FE0732900F0A58008D867
:103830006F2921D07029DBD1226842F0200222605A
:1038400003E0752918D07829D2D1782284F8452050
:10385000DFF890C161E01A68111D1960136884F8DF
:10386000423004F14205012393E01268196015F01B
:10387000400F18BF12B2CDE7D4F800C01A681CF090
:10388000800F02F104051D6001D0126803E01CF0F6
:10389000400FFAD01288DFF848C16F290CBF082307
:1038A0000A23002184F843106568A560002DA2BF9B
:1038B000216821F0040121600AB9002D46D0054697
:1038C000B2FBF3F103FB112E93421CF80EE005F856
:1038D00001ED39D9082B0BD12368DA0708D5236904
:1038E00062689A42DEBF302305F8013C05F1FF35DE
:1038F000401B2061CDF800803B4603AA214630469C
:10390000FFF7E8FE013049D14FF0FF3005B0BDE8C8
:10391000F083DFF8CCC084F845101D68216855F8A5
:10392000042B1D600D060BD5CD0744BF41F02001CF
:1039300021601AB9236823F0200323601023B0E725
:103940004B0648BF92B2EFE70A46B9E70546C1E722
:103950001A68D4F800C06169151D1D601CF0800F45
:10396000136801D0196003E01CF0400FFAD01980F1
:10397000002323610546BDE71A68111D196015680B
:10398000626800212846FCF72BFC08B1401B6060F0
:1039900063682361002384F84330ABE723692A4638
:1039A00039463046C0470130AED023689B0713D458
:1039B000E068039B9842B8BF1846A7E701234A4630
:1039C00039463046C04701309ED00135E368039A3E
:1039D0009B1AAB42F2DCEBE7002504F11909F5E78D
:1039E000593E00086A3E000870B50D46144606466A
:1039F00018B183690BB9FFF76FFB1C4B9C4224D1B4
:103A00007468636ED80705D4A389990502D4A06DA4
:103A1000FFF7FFFBA368013B002BA36005DAA26957
:103A200093421CDBEBB20A2B19D023685A1C22608C
:103A30001D70EDB2636EDA0705D4A3899B0502D42D
:103A4000A06DFFF7E7FB284670BD094B9C4201D1F2
:103A5000B468D6E7074B9C4208BFF468D1E7294613
:103A600022463046FFF75EF90546E3E7083E0008C8
:103A7000283E0008E83D000838B5064C00230546FE
:103A80000846236000F0E8F8431C02D1236803B124
:103A90002B6038BD0002002010B50C46B1F90E10A5
:103AA00000F0A0F80028ABBF636DA3891B1823F4B6
:103AB0008053ACBF6365A38110BD2DE9F0411F4663
:103AC0008B89DB0505460C46164605D502230022E8
:103AD000B1F90E1000F068F8A389B4F90E1023F4C0
:103AE0008053A38132463B462846BDE8F04100F0B2
:103AF00017B810B50C46B1F90E1000F055F8431C7C
:103B0000A38915BF606523F4805343F48053A381D8
:103B100018BFA38110BDB1F90E1000F013B800005A
:103B200038B5074C054608461146002222601A4661
:103B3000FCF7BAFF431C02D1236803B12B6038BDE8
:103B40000002002038B5064C0023054608462360D5
:103B500000F05AF8431C02D1236803B12B6038BD32
:103B60000002002038B5074C0023054608461146E0
:103B7000236000F051F8431C02D1236803B12B608D
:103B800038BD00BF0002002038B5064C00230546B2
:103B90000846236000F048F8431C02D1236803B1B3
:103BA0002B6038BD0002002038B5074C054608469A
:103BB0001146002222601A4600F03EF8431C02D152
:103BC000236803B12B6038BD000200200148FFF7D5
:103BD00020BB00BFF80100200148FFF71BBB00BF5E
:103BE000F801002038B5074C05460846114600226A
:103BF00022601A4600F028F8431C02D1236803B162
:103C00002B6038BD00020020024B58221A604FF092
:103C1000FF30704700020020024B58221A604FF01C
:103C2000FF30704700020020024B58221A6000202B
:103C3000704700BF00020020024B58221A604FF06C
:103C4000FF30704700020020024B58221A604FF0EC
:103C5000FF30704700020020044A05491368002B1A
:103C600008BF0B46184410601846704790000020AB
:103C700008020020F8B500BFF8BC08BC9E4670479B
:0C3C8000F8B500BFF8BC08BC9E467047B9
:103C8C005372632F75736172742E63000000000011
:103C9C0000000000010203040607080900000000F0
:103CAC00010203045372632F6D61696E2E63000071
:103CBC0002000302048A050206E10B20194A1A428B
:103CCC001E0C2540260729A02D052E882F2D37D018
:103CDC0038423C8F3D126F207102000072616469A2
:103CEC006F20696E6E69742E0D0000002B000000B1
:103CFC006C6F6F7079000000726636392025303495
:103D0C0078253032782530327825303278253034A9
:103D1C007825303278253032782530327820000002
:103D2C0025303278000000002020282567257325D7
:103D3C00643A2564290000000A5B726164696F5D56
:103D4C00000000002020456E746572202774272027
:103D5C00746F2062726F616463617374206120748C
:103D6C00657374207061636B6574206173206E6F72
:103D7C0064652025642E0A0020204C697374656EDE
:103D8C00696E6720666F72207061636B6574732057
:103D9C006F6E2025644D487A2C2067726F757020E9
:103DAC002564202E2E2E0A0A000000005372632F69
:103DBC007370692E630000000203040506070809EE
:103DCC000A0B0C0D0E0F1010010203040506070858
:103DDC00090A0B0C0D0E0F1008000020000000004B
:103DEC0000000000000000000000000000000000C7
:103DFC0000000000000000000000000000000000B7
:103E0C0000000000000000000000000000000000A6
:103E1C000000000000000000000000000000000096
:103E2C000000000000000000000000000000000086
:103E3C00000000000000000000000000232D302BCB
:103E4C002000686C4C00656667454647003031328F
:103E5C0033343536373839414243444546003031E6
:103E6C003233343536373839616263646566000045
:043E7C00C501000874
:043E8000A101000894
:103E840000127A000800002000000000083E00082C
:103E9400283E0008E83D0008000000000000000083
:103EA400000000000000000000000000000000000E
:103EB40000000000000000000000000000000000FE
:103EC40000000000000000000000000000000000EE
:103ED40000000000000000000000000000000000DE
:083EE4000000000000000000D6
:0400000508002B358F
:00000001FF
